{
    "contractName": "OvenVault",
    "abi": [
        {
            "inputs": [
                {
                    "internalType": "contract IERC20",
                    "name": "_token",
                    "type": "address"
                },
                {
                    "internalType": "contract IERC20",
                    "name": "_receiptToken",
                    "type": "address"
                },
                {
                    "internalType": "contract IMasterChef",
                    "name": "_masterchef",
                    "type": "address"
                },
                {
                    "internalType": "address",
                    "name": "_admin",
                    "type": "address"
                },
                {
                    "internalType": "address",
                    "name": "_treasury",
                    "type": "address"
                }
            ],
            "stateMutability": "nonpayable",
            "type": "constructor"
        },
        {
            "anonymous": false,
            "inputs": [
                {
                    "indexed": true,
                    "internalType": "address",
                    "name": "sender",
                    "type": "address"
                },
                {
                    "indexed": false,
                    "internalType": "uint256",
                    "name": "amount",
                    "type": "uint256"
                },
                {
                    "indexed": false,
                    "internalType": "uint256",
                    "name": "shares",
                    "type": "uint256"
                },
                {
                    "indexed": false,
                    "internalType": "uint256",
                    "name": "lastDepositedTime",
                    "type": "uint256"
                }
            ],
            "name": "Deposit",
            "type": "event"
        },
        {
            "anonymous": false,
            "inputs": [
                {
                    "indexed": true,
                    "internalType": "address",
                    "name": "sender",
                    "type": "address"
                },
                {
                    "indexed": false,
                    "internalType": "uint256",
                    "name": "performanceFee",
                    "type": "uint256"
                },
                {
                    "indexed": false,
                    "internalType": "uint256",
                    "name": "callFee",
                    "type": "uint256"
                }
            ],
            "name": "Harvest",
            "type": "event"
        },
        {
            "anonymous": false,
            "inputs": [
                {
                    "indexed": true,
                    "internalType": "address",
                    "name": "previousOwner",
                    "type": "address"
                },
                {
                    "indexed": true,
                    "internalType": "address",
                    "name": "newOwner",
                    "type": "address"
                }
            ],
            "name": "OwnershipTransferred",
            "type": "event"
        },
        {
            "anonymous": false,
            "inputs": [],
            "name": "Pause",
            "type": "event"
        },
        {
            "anonymous": false,
            "inputs": [
                {
                    "indexed": false,
                    "internalType": "address",
                    "name": "account",
                    "type": "address"
                }
            ],
            "name": "Paused",
            "type": "event"
        },
        {
            "anonymous": false,
            "inputs": [],
            "name": "Unpause",
            "type": "event"
        },
        {
            "anonymous": false,
            "inputs": [
                {
                    "indexed": false,
                    "internalType": "address",
                    "name": "account",
                    "type": "address"
                }
            ],
            "name": "Unpaused",
            "type": "event"
        },
        {
            "anonymous": false,
            "inputs": [
                {
                    "indexed": true,
                    "internalType": "address",
                    "name": "sender",
                    "type": "address"
                },
                {
                    "indexed": false,
                    "internalType": "uint256",
                    "name": "amount",
                    "type": "uint256"
                },
                {
                    "indexed": false,
                    "internalType": "uint256",
                    "name": "shares",
                    "type": "uint256"
                }
            ],
            "name": "Withdraw",
            "type": "event"
        },
        {
            "inputs": [],
            "name": "MAX_CALL_FEE",
            "outputs": [
                {
                    "internalType": "uint256",
                    "name": "",
                    "type": "uint256"
                }
            ],
            "stateMutability": "view",
            "type": "function"
        },
        {
            "inputs": [],
            "name": "MAX_PERFORMANCE_FEE",
            "outputs": [
                {
                    "internalType": "uint256",
                    "name": "",
                    "type": "uint256"
                }
            ],
            "stateMutability": "view",
            "type": "function"
        },
        {
            "inputs": [],
            "name": "MAX_WITHDRAW_FEE",
            "outputs": [
                {
                    "internalType": "uint256",
                    "name": "",
                    "type": "uint256"
                }
            ],
            "stateMutability": "view",
            "type": "function"
        },
        {
            "inputs": [],
            "name": "MAX_WITHDRAW_FEE_PERIOD",
            "outputs": [
                {
                    "internalType": "uint256",
                    "name": "",
                    "type": "uint256"
                }
            ],
            "stateMutability": "view",
            "type": "function"
        },
        {
            "inputs": [],
            "name": "admin",
            "outputs": [
                {
                    "internalType": "address",
                    "name": "",
                    "type": "address"
                }
            ],
            "stateMutability": "view",
            "type": "function"
        },
        {
            "inputs": [],
            "name": "available",
            "outputs": [
                {
                    "internalType": "uint256",
                    "name": "",
                    "type": "uint256"
                }
            ],
            "stateMutability": "view",
            "type": "function"
        },
        {
            "inputs": [],
            "name": "balanceOf",
            "outputs": [
                {
                    "internalType": "uint256",
                    "name": "",
                    "type": "uint256"
                }
            ],
            "stateMutability": "view",
            "type": "function"
        },
        {
            "inputs": [],
            "name": "calculateHarvestOvenRewards",
            "outputs": [
                {
                    "internalType": "uint256",
                    "name": "",
                    "type": "uint256"
                }
            ],
            "stateMutability": "view",
            "type": "function"
        },
        {
            "inputs": [],
            "name": "calculateTotalPendingOvenRewards",
            "outputs": [
                {
                    "internalType": "uint256",
                    "name": "",
                    "type": "uint256"
                }
            ],
            "stateMutability": "view",
            "type": "function"
        },
        {
            "inputs": [],
            "name": "callFee",
            "outputs": [
                {
                    "internalType": "uint256",
                    "name": "",
                    "type": "uint256"
                }
            ],
            "stateMutability": "view",
            "type": "function"
        },
        {
            "inputs": [
                {
                    "internalType": "uint256",
                    "name": "_amount",
                    "type": "uint256"
                }
            ],
            "name": "deposit",
            "outputs": [],
            "stateMutability": "nonpayable",
            "type": "function"
        },
        {
            "inputs": [],
            "name": "emergencyWithdraw",
            "outputs": [],
            "stateMutability": "nonpayable",
            "type": "function"
        },
        {
            "inputs": [],
            "name": "getPricePerFullShare",
            "outputs": [
                {
                    "internalType": "uint256",
                    "name": "",
                    "type": "uint256"
                }
            ],
            "stateMutability": "view",
            "type": "function"
        },
        {
            "inputs": [],
            "name": "harvest",
            "outputs": [],
            "stateMutability": "nonpayable",
            "type": "function"
        },
        {
            "inputs": [
                {
                    "internalType": "address",
                    "name": "_token",
                    "type": "address"
                }
            ],
            "name": "inCaseTokensGetStuck",
            "outputs": [],
            "stateMutability": "nonpayable",
            "type": "function"
        },
        {
            "inputs": [],
            "name": "lastHarvestedTime",
            "outputs": [
                {
                    "internalType": "uint256",
                    "name": "",
                    "type": "uint256"
                }
            ],
            "stateMutability": "view",
            "type": "function"
        },
        {
            "inputs": [],
            "name": "masterchef",
            "outputs": [
                {
                    "internalType": "contract IMasterChef",
                    "name": "",
                    "type": "address"
                }
            ],
            "stateMutability": "view",
            "type": "function"
        },
        {
            "inputs": [],
            "name": "owner",
            "outputs": [
                {
                    "internalType": "address",
                    "name": "",
                    "type": "address"
                }
            ],
            "stateMutability": "view",
            "type": "function"
        },
        {
            "inputs": [],
            "name": "pause",
            "outputs": [],
            "stateMutability": "nonpayable",
            "type": "function"
        },
        {
            "inputs": [],
            "name": "paused",
            "outputs": [
                {
                    "internalType": "bool",
                    "name": "",
                    "type": "bool"
                }
            ],
            "stateMutability": "view",
            "type": "function"
        },
        {
            "inputs": [],
            "name": "performanceFee",
            "outputs": [
                {
                    "internalType": "uint256",
                    "name": "",
                    "type": "uint256"
                }
            ],
            "stateMutability": "view",
            "type": "function"
        },
        {
            "inputs": [],
            "name": "receiptToken",
            "outputs": [
                {
                    "internalType": "contract IERC20",
                    "name": "",
                    "type": "address"
                }
            ],
            "stateMutability": "view",
            "type": "function"
        },
        {
            "inputs": [],
            "name": "renounceOwnership",
            "outputs": [],
            "stateMutability": "nonpayable",
            "type": "function"
        },
        {
            "inputs": [
                {
                    "internalType": "address",
                    "name": "_admin",
                    "type": "address"
                }
            ],
            "name": "setAdmin",
            "outputs": [],
            "stateMutability": "nonpayable",
            "type": "function"
        },
        {
            "inputs": [
                {
                    "internalType": "uint256",
                    "name": "_callFee",
                    "type": "uint256"
                }
            ],
            "name": "setCallFee",
            "outputs": [],
            "stateMutability": "nonpayable",
            "type": "function"
        },
        {
            "inputs": [
                {
                    "internalType": "uint256",
                    "name": "_performanceFee",
                    "type": "uint256"
                }
            ],
            "name": "setPerformanceFee",
            "outputs": [],
            "stateMutability": "nonpayable",
            "type": "function"
        },
        {
            "inputs": [
                {
                    "internalType": "address",
                    "name": "_treasury",
                    "type": "address"
                }
            ],
            "name": "setTreasury",
            "outputs": [],
            "stateMutability": "nonpayable",
            "type": "function"
        },
        {
            "inputs": [
                {
                    "internalType": "uint256",
                    "name": "_withdrawFee",
                    "type": "uint256"
                }
            ],
            "name": "setWithdrawFee",
            "outputs": [],
            "stateMutability": "nonpayable",
            "type": "function"
        },
        {
            "inputs": [
                {
                    "internalType": "uint256",
                    "name": "_withdrawFeePeriod",
                    "type": "uint256"
                }
            ],
            "name": "setWithdrawFeePeriod",
            "outputs": [],
            "stateMutability": "nonpayable",
            "type": "function"
        },
        {
            "inputs": [],
            "name": "token",
            "outputs": [
                {
                    "internalType": "contract IERC20",
                    "name": "",
                    "type": "address"
                }
            ],
            "stateMutability": "view",
            "type": "function"
        },
        {
            "inputs": [],
            "name": "totalShares",
            "outputs": [
                {
                    "internalType": "uint256",
                    "name": "",
                    "type": "uint256"
                }
            ],
            "stateMutability": "view",
            "type": "function"
        },
        {
            "inputs": [
                {
                    "internalType": "address",
                    "name": "newOwner",
                    "type": "address"
                }
            ],
            "name": "transferOwnership",
            "outputs": [],
            "stateMutability": "nonpayable",
            "type": "function"
        },
        {
            "inputs": [],
            "name": "treasury",
            "outputs": [
                {
                    "internalType": "address",
                    "name": "",
                    "type": "address"
                }
            ],
            "stateMutability": "view",
            "type": "function"
        },
        {
            "inputs": [],
            "name": "unpause",
            "outputs": [],
            "stateMutability": "nonpayable",
            "type": "function"
        },
        {
            "inputs": [
                {
                    "internalType": "address",
                    "name": "",
                    "type": "address"
                }
            ],
            "name": "userInfo",
            "outputs": [
                {
                    "internalType": "uint256",
                    "name": "shares",
                    "type": "uint256"
                },
                {
                    "internalType": "uint256",
                    "name": "lastDepositedTime",
                    "type": "uint256"
                },
                {
                    "internalType": "uint256",
                    "name": "ovenAtLastUserAction",
                    "type": "uint256"
                },
                {
                    "internalType": "uint256",
                    "name": "lastUserActionTime",
                    "type": "uint256"
                }
            ],
            "stateMutability": "view",
            "type": "function"
        },
        {
            "inputs": [
                {
                    "internalType": "uint256",
                    "name": "_shares",
                    "type": "uint256"
                }
            ],
            "name": "withdraw",
            "outputs": [],
            "stateMutability": "nonpayable",
            "type": "function"
        },
        {
            "inputs": [],
            "name": "withdrawAll",
            "outputs": [],
            "stateMutability": "nonpayable",
            "type": "function"
        },
        {
            "inputs": [],
            "name": "withdrawFee",
            "outputs": [
                {
                    "internalType": "uint256",
                    "name": "",
                    "type": "uint256"
                }
            ],
            "stateMutability": "view",
            "type": "function"
        },
        {
            "inputs": [],
            "name": "withdrawFeePeriod",
            "outputs": [
                {
                    "internalType": "uint256",
                    "name": "",
                    "type": "uint256"
                }
            ],
            "stateMutability": "view",
            "type": "function"
        }
    ],
    "bytecode": "60e060405260c86006556019600755600a6008556203f4806009553480156200002757600080fd5b50604051620029f8380380620029f88339810160408190526200004a916200042f565b60006200005662000128565b600080546001600160a01b0319166001600160a01b0383169081178255604051929350917f8be0079c531659141344cd1fd0a4f28419497f9722a3daafe3b4186f6b6457e0908290a3506000805460ff60a01b191690556001600160601b0319606086811b821660805285811b821660a05284901b1660c052600480546001600160a01b038481166001600160a01b0319928316179092556005805484841692169190911790556200011d908616846000196200168f6200012c602090811b91909117901c565b5050505050620006bd565b3390565b801580620001bb5750604051636eb1769f60e11b81526001600160a01b0384169063dd62ed3e90620001659030908690600401620004e5565b60206040518083038186803b1580156200017e57600080fd5b505afa15801562000193573d6000803e3d6000fd5b505050506040513d601f19601f82011682018060405250810190620001b99190620004ae565b155b620001e35760405162461bcd60e51b8152600401620001da9062000614565b60405180910390fd5b6200023e8363095ea7b360e01b848460405160240162000205929190620004ff565b60408051808303601f190181529190526020810180516001600160e01b0319939093166001600160e01b03938416179052906200024316565b505050565b60006200029f826040518060400160405280602081526020017f5361666545524332303a206c6f772d6c6576656c2063616c6c206661696c6564815250856001600160a01b0316620002df60201b6200178e179092919060201c565b8051909150156200023e5780806020019051810190620002c091906200040d565b6200023e5760405162461bcd60e51b8152600401620001da90620005ca565b6060620002f08484600085620002fa565b90505b9392505050565b6060824710156200031f5760405162461bcd60e51b8152600401620001da906200054d565b6200032a85620003c9565b620003495760405162461bcd60e51b8152600401620001da9062000593565b600080866001600160a01b03168587604051620003679190620004c7565b60006040518083038185875af1925050503d8060008114620003a6576040519150601f19603f3d011682016040523d82523d6000602084013e620003ab565b606091505b509092509050620003be828286620003cf565b979650505050505050565b3b151590565b60608315620003e0575081620002f3565b825115620003f15782518084602001fd5b8160405162461bcd60e51b8152600401620001da919062000518565b6000602082840312156200041f578081fd5b81518015158114620002f3578182fd5b600080600080600060a0868803121562000447578081fd5b85516200045481620006a4565b60208701519095506200046781620006a4565b60408701519094506200047a81620006a4565b60608701519093506200048d81620006a4565b6080870151909250620004a081620006a4565b809150509295509295909350565b600060208284031215620004c0578081fd5b5051919050565b60008251620004db81846020870162000671565b9190910192915050565b6001600160a01b0392831681529116602082015260400190565b6001600160a01b03929092168252602082015260400190565b60006020825282518060208401526200053981604085016020870162000671565b601f01601f19169190910160400192915050565b60208082526026908201527f416464726573733a20696e73756666696369656e742062616c616e636520666f6040820152651c8818d85b1b60d21b606082015260800190565b6020808252601d908201527f416464726573733a2063616c6c20746f206e6f6e2d636f6e7472616374000000604082015260600190565b6020808252602a908201527f5361666545524332303a204552433230206f7065726174696f6e20646964206e6040820152691bdd081cdd58d8d9595960b21b606082015260800190565b60208082526036908201527f5361666545524332303a20617070726f76652066726f6d206e6f6e2d7a65726f60408201527f20746f206e6f6e2d7a65726f20616c6c6f77616e636500000000000000000000606082015260800190565b60005b838110156200068e57818101518382015260200162000674565b838111156200069e576000848401525b50505050565b6001600160a01b0381168114620006ba57600080fd5b50565b60805160601c60a05160601c60c05160601c612292620007666000396000818161061d015281816108fd01528181610c9401528181610de50152818161123a0152818161141601528181611649015261186601526000818161132201526114cf01526000818161070101528181610785015281816109a2015281816109f701528181610a8501528181610d36015281816110f7015281816112d0015261166d01526122926000f3fe608060405234801561001057600080fd5b506004361061023d5760003560e01c8063853828b61161013b578063def68a9c116100b8578063f0f442601161007c578063f0f44260146103ef578063f2fde38b14610402578063f851a44014610415578063fb1db2781461041d578063fc0c546a146104255761023d565b8063def68a9c146103bc578063df10b4e6146103cf578063e310f0d8146103d7578063e941fa78146103df578063ec78e832146103e75761023d565b8063b6ac642a116100ff578063b6ac642a14610386578063b6b55f2514610399578063bdca9165146103ac578063d4b0de2f14610296578063db2e21bc146103b45761023d565b8063853828b61461035e57806387788782146103665780638da5cb5b1461036e57806390321e1a14610376578063b60f05311461037e5761023d565b806348a0d754116101c9578063715018a61161018d578063715018a614610336578063722713f71461033e57806377be0b071461034657806377c7b8fc1461034e5780638456cb59146103565761023d565b806348a0d754146102de5780635c975abb146102e657806361d027b3146102fb578063704b6c021461031057806370897b23146103235761023d565b80632cfc5f01116102105780632cfc5f01146102ab5780632e1a7d4d146102b35780633a98ef39146102c65780633f4ba83a146102ce5780634641257d146102d65761023d565b80631959a002146102425780631efac1b81461026e57806326465826146102835780632ad5a53f14610296575b600080fd5b610255610250366004611adf565b61042d565b6040516102659493929190612191565b60405180910390f35b61028161027c366004611b26565b610455565b005b610281610291366004611b26565b6104b0565b61029e610500565b6040516102659190611c0b565b61029e610505565b6102816102c1366004611b26565b61050c565b61029e6107f5565b6102816107fb565b61028161087c565b61029e610a6b565b6102ee610b0f565b6040516102659190611c00565b610303610b1f565b6040516102659190611b95565b61028161031e366004611adf565b610b2e565b610281610331366004611b26565b610bb5565b610281610c06565b61029e610c8f565b61029e610de0565b61029e610ebc565b610281610f01565b610281610f83565b61029e610fe3565b610303610fe9565b61029e610ff8565b61029e610ffe565b610281610394366004611b26565b611004565b6102816103a7366004611b26565b611054565b61029e6111f3565b6102816111f9565b6102816103ca366004611adf565b6112a4565b61029e61140b565b61029e611411565b61029e6114c7565b6103036114cd565b6102816103fd366004611adf565b6114f1565b610281610410366004611adf565b611578565b610303611638565b610303611647565b61030361166b565b6001602081905260009182526040909120805491810154600282015460039092015490919084565b6004546001600160a01b031633146104885760405162461bcd60e51b815260040161047f90611fc4565b60405180910390fd5b6203f4808111156104ab5760405162461bcd60e51b815260040161047f90612020565b600955565b6004546001600160a01b031633146104da5760405162461bcd60e51b815260040161047f90611fc4565b60648111156104fb5760405162461bcd60e51b815260040161047f90611e69565b600755565b606481565b6203f48081565b610515336117a7565b156105325760405162461bcd60e51b815260040161047f90611f96565b3332146105515760405162461bcd60e51b815260040161047f90611c8a565b3360009081526001602052604090208161057d5760405162461bcd60e51b815260040161047f90611cef565b805482111561059e5760405162461bcd60e51b815260040161047f90611da7565b6000600254836105ac610c8f565b6105b691906121e4565b6105c091906121c4565b82549091506105d0908490612203565b82556002546105e0908490612203565b60025560006105ed610a6b565b9050818110156106b75760006106038284612203565b604051631058d28160e01b81529091506001600160a01b037f00000000000000000000000000000000000000000000000000000000000000001690631058d28190610652908490600401611c0b565b600060405180830381600087803b15801561066c57600080fd5b505af1158015610680573d6000803e3d6000fd5b50505050600061068e610a6b565b9050600061069c8483612203565b9050828110156106b3576106b081856121ac565b94505b5050505b60095483600101546106c991906121ac565b421015610738576000612710600854846106e391906121e4565b6106ed91906121c4565b60055490915061072a906001600160a01b037f000000000000000000000000000000000000000000000000000000000000000081169116836117ad565b6107348184612203565b9250505b82541561076a5760025461074a610c8f565b845461075691906121e4565b61076091906121c4565b6002840155610772565b600060028401555b4260038401556107ac6001600160a01b037f00000000000000000000000000000000000000000000000000000000000000001633846117ad565b336001600160a01b03167ff279e6a1f5e320cca91135676d9cb6e44ca8a08c0b88342bcdb1144f6511b56883866040516107e792919061216d565b60405180910390a250505050565b60025481565b6004546001600160a01b031633146108255760405162461bcd60e51b815260040161047f90611fc4565b61082d610b0f565b6108495760405162461bcd60e51b815260040161047f90611cc1565b6108516117cc565b6040517f7805862f689e2f13df9f062ff482ad3ad112aca9e0847911ed832e158c525b3390600090a1565b610885336117a7565b156108a25760405162461bcd60e51b815260040161047f90611f96565b3332146108c15760405162461bcd60e51b815260040161047f90611c8a565b6108c9610b0f565b156108e65760405162461bcd60e51b815260040161047f90611f07565b604051631058d28160e01b81526001600160a01b037f00000000000000000000000000000000000000000000000000000000000000001690631058d2819061093390600090600401611c0b565b600060405180830381600087803b15801561094d57600080fd5b505af1158015610961573d6000803e3d6000fd5b50505050600061096f610a6b565b905060006127106006548361098491906121e4565b61098e91906121c4565b6005549091506109cb906001600160a01b037f000000000000000000000000000000000000000000000000000000000000000081169116836117ad565b6000612710600754846109de91906121e4565b6109e891906121c4565b9050610a1e6001600160a01b037f00000000000000000000000000000000000000000000000000000000000000001633836117ad565b610a2661183d565b4260035560405133907f71bab65ced2e5750775a0613be067df48ef06cf92a496ebf7663ae066092495490610a5e908590859061216d565b60405180910390a2505050565b6040516370a0823160e01b81526000906001600160a01b037f000000000000000000000000000000000000000000000000000000000000000016906370a0823190610aba903090600401611b95565b60206040518083038186803b158015610ad257600080fd5b505afa158015610ae6573d6000803e3d6000fd5b505050506040513d601f19601f82011682018060405250810190610b0a9190611b3e565b905090565b600054600160a01b900460ff1690565b6005546001600160a01b031681565b610b366118d1565b6001600160a01b0316610b47610fe9565b6001600160a01b031614610b6d5760405162461bcd60e51b815260040161047f90611f61565b6001600160a01b038116610b935760405162461bcd60e51b815260040161047f90611f31565b600480546001600160a01b0319166001600160a01b0392909216919091179055565b6004546001600160a01b03163314610bdf5760405162461bcd60e51b815260040161047f90611fc4565b6101f4811115610c015760405162461bcd60e51b815260040161047f90611eb1565b600655565b610c0e6118d1565b6001600160a01b0316610c1f610fe9565b6001600160a01b031614610c455760405162461bcd60e51b815260040161047f90611f61565b600080546040516001600160a01b03909116907f8be0079c531659141344cd1fd0a4f28419497f9722a3daafe3b4186f6b6457e0908390a3600080546001600160a01b0319169055565b6000807f00000000000000000000000000000000000000000000000000000000000000006001600160a01b03166393f1a40b6000306040518363ffffffff1660e01b8152600401610ce1929190611c14565b604080518083038186803b158015610cf857600080fd5b505afa158015610d0c573d6000803e3d6000fd5b505050506040513d601f19601f82011682018060405250810190610d309190611b56565b509050807f00000000000000000000000000000000000000000000000000000000000000006001600160a01b03166370a08231306040518263ffffffff1660e01b8152600401610d809190611b95565b60206040518083038186803b158015610d9857600080fd5b505afa158015610dac573d6000803e3d6000fd5b505050506040513d601f19601f82011682018060405250810190610dd09190611b3e565b610dda91906121ac565b91505090565b6000807f00000000000000000000000000000000000000000000000000000000000000006001600160a01b031663058abdcd6000306040518363ffffffff1660e01b8152600401610e32929190611c14565b60206040518083038186803b158015610e4a57600080fd5b505afa158015610e5e573d6000803e3d6000fd5b505050506040513d601f19601f82011682018060405250810190610e829190611b3e565b9050610e8c610a6b565b610e9690826121ac565b9050600061271060075483610eab91906121e4565b610eb591906121c4565b9250505090565b6000600254600014610ef457600254610ed3610c8f565b610ee590670de0b6b3a76400006121e4565b610eef91906121c4565b610b0a565b50670de0b6b3a764000090565b6004546001600160a01b03163314610f2b5760405162461bcd60e51b815260040161047f90611fc4565b610f33610b0f565b15610f505760405162461bcd60e51b815260040161047f90611f07565b610f586118d5565b6040517f6985a02210a168e66602d3235cb6db0e70f92b3ba4d376a33c0f3d9434bff62590600090a1565b610f8c336117a7565b15610fa95760405162461bcd60e51b815260040161047f90611f96565b333214610fc85760405162461bcd60e51b815260040161047f90611c8a565b33600090815260016020526040902054610fe19061050c565b565b60065481565b6000546001600160a01b031690565b60075481565b60035481565b6004546001600160a01b0316331461102e5760405162461bcd60e51b815260040161047f90611fc4565b606481111561104f5760405162461bcd60e51b815260040161047f906120c7565b600855565b61105c610b0f565b156110795760405162461bcd60e51b815260040161047f90611f07565b611082336117a7565b1561109f5760405162461bcd60e51b815260040161047f90611f96565b3332146110be5760405162461bcd60e51b815260040161047f90611c8a565b600081116110de5760405162461bcd60e51b815260040161047f90611c5e565b60006110e8610c8f565b905061111f6001600160a01b037f000000000000000000000000000000000000000000000000000000000000000016333085611936565b600060025460001461114b57816002548461113a91906121e4565b61114491906121c4565b905061114e565b50815b336000908152600160205260409020805461116a9083906121ac565b81554260018201556002546111809083906121ac565b600281905561118d610c8f565b825461119991906121e4565b6111a391906121c4565b60028201554260038201556111b661183d565b336001600160a01b03167f36af321ec8d3c75236829c5317affd40ddb308863a1236d2d277a4025cccee1e8584426040516107e79392919061217b565b6101f481565b6004546001600160a01b031633146112235760405162461bcd60e51b815260040161047f90611fc4565b604051632989754760e11b81526001600160a01b037f00000000000000000000000000000000000000000000000000000000000000001690635312ea8e9061127090600090600401611c0b565b600060405180830381600087803b15801561128a57600080fd5b505af115801561129e573d6000803e3d6000fd5b50505050565b6004546001600160a01b031633146112ce5760405162461bcd60e51b815260040161047f90611fc4565b7f00000000000000000000000000000000000000000000000000000000000000006001600160a01b0316816001600160a01b031614156113205760405162461bcd60e51b815260040161047f90611d62565b7f00000000000000000000000000000000000000000000000000000000000000006001600160a01b0316816001600160a01b031614156113725760405162461bcd60e51b815260040161047f90611e24565b6040516370a0823160e01b81526000906001600160a01b038316906370a08231906113a1903090600401611b95565b60206040518083038186803b1580156113b957600080fd5b505afa1580156113cd573d6000803e3d6000fd5b505050506040513d601f19601f820116820180604052508101906113f19190611b3e565b90506114076001600160a01b03831633836117ad565b5050565b60095481565b6000807f00000000000000000000000000000000000000000000000000000000000000006001600160a01b031663058abdcd6000306040518363ffffffff1660e01b8152600401611463929190611c14565b60206040518083038186803b15801561147b57600080fd5b505afa15801561148f573d6000803e3d6000fd5b505050506040513d601f19601f820116820180604052508101906114b39190611b3e565b90506114bd610a6b565b610dda90826121ac565b60085481565b7f000000000000000000000000000000000000000000000000000000000000000081565b6114f96118d1565b6001600160a01b031661150a610fe9565b6001600160a01b0316146115305760405162461bcd60e51b815260040161047f90611f61565b6001600160a01b0381166115565760405162461bcd60e51b815260040161047f90611f31565b600580546001600160a01b0319166001600160a01b0392909216919091179055565b6115806118d1565b6001600160a01b0316611591610fe9565b6001600160a01b0316146115b75760405162461bcd60e51b815260040161047f90611f61565b6001600160a01b0381166115dd5760405162461bcd60e51b815260040161047f90611d1c565b600080546040516001600160a01b03808516939216917f8be0079c531659141344cd1fd0a4f28419497f9722a3daafe3b4186f6b6457e091a3600080546001600160a01b0319166001600160a01b0392909216919091179055565b6004546001600160a01b031681565b7f000000000000000000000000000000000000000000000000000000000000000081565b7f000000000000000000000000000000000000000000000000000000000000000081565b8015806117175750604051636eb1769f60e11b81526001600160a01b0384169063dd62ed3e906116c59030908690600401611ba9565b60206040518083038186803b1580156116dd57600080fd5b505afa1580156116f1573d6000803e3d6000fd5b505050506040513d601f19601f820116820180604052508101906117159190611b3e565b155b6117335760405162461bcd60e51b815260040161047f90612117565b6117898363095ea7b360e01b8484604051602401611752929190611be7565b60408051601f198184030181529190526020810180516001600160e01b03166001600160e01b031990931692909217909152611957565b505050565b606061179d84846000856119e6565b90505b9392505050565b3b151590565b6117898363a9059cbb60e01b8484604051602401611752929190611be7565b6117d4610b0f565b6117f05760405162461bcd60e51b815260040161047f90611cc1565b6000805460ff60a01b191690557f5db9ee0a495bf2e6ff9c91a7834c1ba4fdd244a5e8aa4e537bd38aeae4b073aa6118266118d1565b6040516118339190611b95565b60405180910390a1565b6000611847610a6b565b905080156118ce576040516341441d3b60e01b81526001600160a01b037f000000000000000000000000000000000000000000000000000000000000000016906341441d3b9061189b908490600401611c0b565b600060405180830381600087803b1580156118b557600080fd5b505af11580156118c9573d6000803e3d6000fd5b505050505b50565b3390565b6118dd610b0f565b156118fa5760405162461bcd60e51b815260040161047f90611f07565b6000805460ff60a01b1916600160a01b1790557f62e78cea01bee320cd4e420270b5ea74000d11b0c9f74754ebdbfc544b05a2586118266118d1565b61129e846323b872dd60e01b85858560405160240161175293929190611bc3565b60006119ac826040518060400160405280602081526020017f5361666545524332303a206c6f772d6c6576656c2063616c6c206661696c6564815250856001600160a01b031661178e9092919063ffffffff16565b80519091501561178957808060200190518101906119ca9190611b06565b6117895760405162461bcd60e51b815260040161047f9061207d565b606082471015611a085760405162461bcd60e51b815260040161047f90611dde565b611a11856117a7565b611a2d5760405162461bcd60e51b815260040161047f90611fe9565b600080866001600160a01b03168587604051611a499190611b79565b60006040518083038185875af1925050503d8060008114611a86576040519150601f19603f3d011682016040523d82523d6000602084013e611a8b565b606091505b5091509150611a9b828286611aa6565b979650505050505050565b60608315611ab55750816117a0565b825115611ac55782518084602001fd5b8160405162461bcd60e51b815260040161047f9190611c2b565b600060208284031215611af0578081fd5b81356001600160a01b03811681146117a0578182fd5b600060208284031215611b17578081fd5b815180151581146117a0578182fd5b600060208284031215611b37578081fd5b5035919050565b600060208284031215611b4f578081fd5b5051919050565b60008060408385031215611b68578081fd5b505080516020909101519092909150565b60008251611b8b81846020870161221a565b9190910192915050565b6001600160a01b0391909116815260200190565b6001600160a01b0392831681529116602082015260400190565b6001600160a01b039384168152919092166020820152604081019190915260600190565b6001600160a01b03929092168252602082015260400190565b901515815260200190565b90815260200190565b9182526001600160a01b0316602082015260400190565b6000602082528251806020840152611c4a81604085016020870161221a565b601f01601f19169190910160400192915050565b602080825260129082015271139bdd1a1a5b99c81d1bc819195c1bdcda5d60721b604082015260600190565b6020808252601a908201527f70726f787920636f6e7472616374206e6f7420616c6c6f776564000000000000604082015260600190565b60208082526014908201527314185d5cd8589b194e881b9bdd081c185d5cd95960621b604082015260600190565b6020808252601390820152724e6f7468696e6720746f20776974686472617760681b604082015260600190565b60208082526026908201527f4f776e61626c653a206e6577206f776e657220697320746865207a65726f206160408201526564647265737360d01b606082015260800190565b60208082526025908201527f546f6b656e2063616e6e6f742062652073616d65206173206465706f736974206040820152643a37b5b2b760d91b606082015260800190565b6020808252601f908201527f576974686472617720616d6f756e7420657863656564732062616c616e636500604082015260600190565b60208082526026908201527f416464726573733a20696e73756666696369656e742062616c616e636520666f6040820152651c8818d85b1b60d21b606082015260800190565b60208082526025908201527f546f6b656e2063616e6e6f742062652073616d652061732072656365697074206040820152643a37b5b2b760d91b606082015260800190565b60208082526028908201527f63616c6c4665652063616e6e6f74206265206d6f7265207468616e204d41585f60408201526743414c4c5f46454560c01b606082015260800190565b60208082526036908201527f706572666f726d616e63654665652063616e6e6f74206265206d6f7265207468604082015275616e204d41585f504552464f524d414e43455f46454560501b606082015260800190565b60208082526010908201526f14185d5cd8589b194e881c185d5cd95960821b604082015260600190565b60208082526016908201527543616e6e6f74206265207a65726f206164647265737360501b604082015260600190565b6020808252818101527f4f776e61626c653a2063616c6c6572206973206e6f7420746865206f776e6572604082015260600190565b60208082526014908201527318dbdb9d1c9858dd081b9bdd08185b1b1bddd95960621b604082015260600190565b6020808252600b908201526a61646d696e3a207775743f60a81b604082015260600190565b6020808252601d908201527f416464726573733a2063616c6c20746f206e6f6e2d636f6e7472616374000000604082015260600190565b6020808252603d908201527f7769746864726177466565506572696f642063616e6e6f74206265206d6f726560408201527f207468616e204d41585f57495448445241575f4645455f504552494f44000000606082015260800190565b6020808252602a908201527f5361666545524332303a204552433230206f7065726174696f6e20646964206e6040820152691bdd081cdd58d8d9595960b21b606082015260800190565b60208082526030908201527f77697468647261774665652063616e6e6f74206265206d6f7265207468616e2060408201526f4d41585f57495448445241575f46454560801b606082015260800190565b60208082526036908201527f5361666545524332303a20617070726f76652066726f6d206e6f6e2d7a65726f60408201527520746f206e6f6e2d7a65726f20616c6c6f77616e636560501b606082015260800190565b918252602082015260400190565b9283526020830191909152604082015260600190565b93845260208401929092526040830152606082015260800190565b600082198211156121bf576121bf612246565b500190565b6000826121df57634e487b7160e01b81526012600452602481fd5b500490565b60008160001904831182151516156121fe576121fe612246565b500290565b60008282101561221557612215612246565b500390565b60005b8381101561223557818101518382015260200161221d565b8381111561129e5750506000910152565b634e487b7160e01b600052601160045260246000fdfea2646970667358221220ff691568c49313b3f6f45b2cb145a970cdea01b4b57186ed913a27a7db5df9c164736f6c63430008000033",
    "sourcePath": "/Users/Uni/Documents/GitHub/easybake/easybake-bakery/contracts/OvenVault.sol",
    "compiler": {
        "name": "solc",
        "version": "0.8.0+commit.c7dfd78e"
    },
    "functionHashes": {
        "MAX_CALL_FEE()": "2ad5a53f",
        "MAX_PERFORMANCE_FEE()": "bdca9165",
        "MAX_WITHDRAW_FEE()": "d4b0de2f",
        "MAX_WITHDRAW_FEE_PERIOD()": "2cfc5f01",
        "admin()": "f851a440",
        "available()": "48a0d754",
        "balanceOf()": "722713f7",
        "calculateHarvestOvenRewards()": "77be0b07",
        "calculateTotalPendingOvenRewards()": "e310f0d8",
        "callFee()": "90321e1a",
        "deposit(uint256)": "b6b55f25",
        "emergencyWithdraw()": "db2e21bc",
        "getPricePerFullShare()": "77c7b8fc",
        "harvest()": "4641257d",
        "inCaseTokensGetStuck(address)": "def68a9c",
        "lastHarvestedTime()": "b60f0531",
        "masterchef()": "fb1db278",
        "owner()": "8da5cb5b",
        "pause()": "8456cb59",
        "paused()": "5c975abb",
        "performanceFee()": "87788782",
        "receiptToken()": "ec78e832",
        "renounceOwnership()": "715018a6",
        "setAdmin(address)": "704b6c02",
        "setCallFee(uint256)": "26465826",
        "setPerformanceFee(uint256)": "70897b23",
        "setTreasury(address)": "f0f44260",
        "setWithdrawFee(uint256)": "b6ac642a",
        "setWithdrawFeePeriod(uint256)": "1efac1b8",
        "token()": "fc0c546a",
        "totalShares()": "3a98ef39",
        "transferOwnership(address)": "f2fde38b",
        "treasury()": "61d027b3",
        "unpause()": "3f4ba83a",
        "userInfo(address)": "1959a002",
        "withdraw(uint256)": "2e1a7d4d",
        "withdrawAll()": "853828b6",
        "withdrawFee()": "e941fa78",
        "withdrawFeePeriod()": "df10b4e6"
    },
    "gasEstimates": {
        "creation": {
            "codeDepositCost": "1770000",
            "executionCost": "infinite",
            "totalCost": "infinite"
        },
        "external": {
            "MAX_CALL_FEE()": "341",
            "MAX_PERFORMANCE_FEE()": "317",
            "MAX_WITHDRAW_FEE()": "339",
            "MAX_WITHDRAW_FEE_PERIOD()": "274",
            "admin()": "1158",
            "available()": "infinite",
            "balanceOf()": "infinite",
            "calculateHarvestOvenRewards()": "infinite",
            "calculateTotalPendingOvenRewards()": "infinite",
            "callFee()": "1140",
            "deposit(uint256)": "infinite",
            "emergencyWithdraw()": "infinite",
            "getPricePerFullShare()": "infinite",
            "harvest()": "infinite",
            "inCaseTokensGetStuck(address)": "infinite",
            "lastHarvestedTime()": "1162",
            "masterchef()": "infinite",
            "owner()": "1160",
            "pause()": "infinite",
            "paused()": "1125",
            "performanceFee()": "1096",
            "receiptToken()": "infinite",
            "renounceOwnership()": "24300",
            "setAdmin(address)": "22213",
            "setCallFee(uint256)": "21181",
            "setPerformanceFee(uint256)": "21224",
            "setTreasury(address)": "22145",
            "setWithdrawFee(uint256)": "21135",
            "setWithdrawFeePeriod(uint256)": "21159",
            "token()": "infinite",
            "totalShares()": "1118",
            "transferOwnership(address)": "24521",
            "treasury()": "1160",
            "unpause()": "infinite",
            "userInfo(address)": "3778",
            "withdraw(uint256)": "infinite",
            "withdrawAll()": "infinite",
            "withdrawFee()": "1139",
            "withdrawFeePeriod()": "1095"
        },
        "internal": {
            "_earn()": "infinite",
            "_isContract(address)": "718"
        }
    }
}