{
    "contractName": "SugarMama",
    "abi": [
        {
            "inputs": [
                {
                    "internalType": "contract IERC20",
                    "name": "_sugar",
                    "type": "address"
                },
                {
                    "internalType": "uint256",
                    "name": "_rewardPerSecond",
                    "type": "uint256"
                },
                {
                    "internalType": "uint256",
                    "name": "_startTime",
                    "type": "uint256"
                },
                {
                    "internalType": "uint256",
                    "name": "_endBlock",
                    "type": "uint256"
                }
            ],
            "stateMutability": "nonpayable",
            "type": "constructor"
        },
        {
            "anonymous": false,
            "inputs": [
                {
                    "indexed": true,
                    "internalType": "address",
                    "name": "user",
                    "type": "address"
                },
                {
                    "indexed": false,
                    "internalType": "uint256",
                    "name": "amount",
                    "type": "uint256"
                }
            ],
            "name": "Deposit",
            "type": "event"
        },
        {
            "anonymous": false,
            "inputs": [
                {
                    "indexed": true,
                    "internalType": "address",
                    "name": "user",
                    "type": "address"
                },
                {
                    "indexed": false,
                    "internalType": "uint256",
                    "name": "amount",
                    "type": "uint256"
                }
            ],
            "name": "EmergencyWithdraw",
            "type": "event"
        },
        {
            "anonymous": false,
            "inputs": [
                {
                    "indexed": true,
                    "internalType": "address",
                    "name": "user",
                    "type": "address"
                },
                {
                    "indexed": false,
                    "internalType": "uint256",
                    "name": "amount",
                    "type": "uint256"
                }
            ],
            "name": "Withdraw",
            "type": "event"
        },
        {
            "inputs": [],
            "name": "addressLength",
            "outputs": [
                {
                    "internalType": "uint256",
                    "name": "",
                    "type": "uint256"
                }
            ],
            "stateMutability": "view",
            "type": "function"
        },
        {
            "inputs": [
                {
                    "internalType": "uint256",
                    "name": "",
                    "type": "uint256"
                }
            ],
            "name": "addressList",
            "outputs": [
                {
                    "internalType": "address",
                    "name": "",
                    "type": "address"
                }
            ],
            "stateMutability": "view",
            "type": "function"
        },
        {
            "inputs": [],
            "name": "bonusEndBlock",
            "outputs": [
                {
                    "internalType": "uint256",
                    "name": "",
                    "type": "uint256"
                }
            ],
            "stateMutability": "view",
            "type": "function"
        },
        {
            "inputs": [
                {
                    "internalType": "uint256",
                    "name": "_amount",
                    "type": "uint256"
                }
            ],
            "name": "deposit",
            "outputs": [],
            "stateMutability": "nonpayable",
            "type": "function"
        },
        {
            "inputs": [
                {
                    "internalType": "address",
                    "name": "_user",
                    "type": "address"
                }
            ],
            "name": "pendingReward",
            "outputs": [
                {
                    "internalType": "uint256",
                    "name": "",
                    "type": "uint256"
                }
            ],
            "stateMutability": "view",
            "type": "function"
        },
        {
            "inputs": [],
            "name": "poolInfo",
            "outputs": [
                {
                    "internalType": "uint256",
                    "name": "lastRewardTime",
                    "type": "uint256"
                },
                {
                    "internalType": "uint256",
                    "name": "accRewardPerShare",
                    "type": "uint256"
                }
            ],
            "stateMutability": "view",
            "type": "function"
        },
        {
            "inputs": [],
            "name": "rewardPerSecond",
            "outputs": [
                {
                    "internalType": "uint256",
                    "name": "",
                    "type": "uint256"
                }
            ],
            "stateMutability": "view",
            "type": "function"
        },
        {
            "inputs": [],
            "name": "startTime",
            "outputs": [
                {
                    "internalType": "uint256",
                    "name": "",
                    "type": "uint256"
                }
            ],
            "stateMutability": "view",
            "type": "function"
        },
        {
            "inputs": [],
            "name": "sugar",
            "outputs": [
                {
                    "internalType": "contract IERC20",
                    "name": "",
                    "type": "address"
                }
            ],
            "stateMutability": "view",
            "type": "function"
        },
        {
            "inputs": [],
            "name": "updatePool",
            "outputs": [],
            "stateMutability": "nonpayable",
            "type": "function"
        },
        {
            "inputs": [
                {
                    "internalType": "address",
                    "name": "",
                    "type": "address"
                }
            ],
            "name": "userInfo",
            "outputs": [
                {
                    "internalType": "uint256",
                    "name": "amount",
                    "type": "uint256"
                },
                {
                    "internalType": "uint256",
                    "name": "rewardDebt",
                    "type": "uint256"
                },
                {
                    "internalType": "uint256",
                    "name": "rewardPending",
                    "type": "uint256"
                }
            ],
            "stateMutability": "view",
            "type": "function"
        },
        {
            "inputs": [
                {
                    "internalType": "uint256",
                    "name": "_amount",
                    "type": "uint256"
                }
            ],
            "name": "withdraw",
            "outputs": [],
            "stateMutability": "nonpayable",
            "type": "function"
        }
    ],
    "bytecode": "608060405234801561001057600080fd5b50604051610acf380380610acf83398101604081905261002f9161007e565b600080546001600160a01b0319166001600160a01b03959095169490941784556001929092556006819055600791909155604080518082019091528181526020018290526002556003556100c7565b60008060008060808587031215610093578384fd5b84516001600160a01b03811681146100a9578485fd5b60208601516040870151606090970151919890975090945092505050565b6109f9806100d66000396000f3fe608060405234801561001057600080fd5b50600436106100b45760003560e01c8063a0e0e13c11610071578063a0e0e13c14610134578063b6b55f2514610149578063b810fb431461015c578063dc8818881461016f578063e3161ddd14610177578063f40f0f521461017f576100b4565b80631959a002146100b95780631aed6553146100e45780632e1a7d4d146100f95780635a2f3d091461010e57806378e97925146101245780638f10369a1461012c575b600080fd5b6100cc6100c73660046107f3565b610192565b6040516100db93929190610929565b60405180910390f35b6100ec6101b3565b6040516100db9190610912565b61010c610107366004610841565b6101b9565b005b610116610352565b6040516100db92919061091b565b6100ec61035b565b6100ec610361565b61013c610367565b6040516100db9190610871565b61010c610157366004610841565b610376565b61013c61016a366004610841565b610542565b6100ec61056c565b61010c610572565b6100ec61018d3660046107f3565b61066b565b60046020526000908152604090208054600182015460029092015490919083565b60075481565b600081116101e25760405162461bcd60e51b81526004016101d9906108f0565b60405180910390fd5b33600090815260046020526040902080548211156102125760405162461bcd60e51b81526004016101d9906108c2565b61021a610572565b60005460405163a9059cbb60e01b81526001600160a01b039091169063a9059cbb9061024c90339086906004016108a9565b602060405180830381600087803b15801561026657600080fd5b505af115801561027a573d6000803e3d6000fd5b505050506040513d601f19601f8201168201806040525081019061029e9190610821565b5060028101546001820154600354835464e8d4a51000916102be91610977565b6102c89190610957565b6102d29190610996565b6102dc919061093f565b600282015580546102ee908390610996565b80825560035464e8d4a51000916103059190610977565b61030f9190610957565b600182015560405133907f884edad9ce6fa2440d8a54cc123490eb96d2768479d49ff9c7366125a942436490610346908590610912565b60405180910390a25050565b60025460035482565b60065481565b60015481565b6000546001600160a01b031681565b600081116103965760405162461bcd60e51b81526004016101d9906108f0565b3360009081526004602052604090206103ad610572565b6000546040516323b872dd60e01b81526001600160a01b03909116906323b872dd906103e190339030908790600401610885565b602060405180830381600087803b1580156103fb57600080fd5b505af115801561040f573d6000803e3d6000fd5b505050506040513d601f19601f820116820180604052508101906104339190610821565b50805415801561044557506002810154155b801561045357506001810154155b1561049b57600580546001810182556000919091527f036b6384b5eca791c62761152d0c79bb0604c104a5fb6f4eb0703f3154bb3db00180546001600160a01b031916331790555b60028101546001820154600354835464e8d4a51000916104ba91610977565b6104c49190610957565b6104ce9190610996565b6104d8919061093f565b600282015580546104ea90839061093f565b80825560035464e8d4a51000916105019190610977565b61050b9190610957565b600182015560405133907fe1fffcc4923d04b559f4d29a8bfc6cda04eb5b0d3c460751c2402c5c5cc9109c90610346908590610912565b6005818154811061055257600080fd5b6000918252602090912001546001600160a01b0316905081565b60055490565b600254421161058057610669565b600080546040516370a0823160e01b81526001600160a01b03909116906370a08231906105b1903090600401610871565b60206040518083038186803b1580156105c957600080fd5b505afa1580156105dd573d6000803e3d6000fd5b505050506040513d601f19601f820116820180604052508101906106019190610859565b905080610612575042600255610669565b6000610623600260000154426107b2565b90506000600154826106359190610977565b9050826106478264e8d4a51000610977565b6106519190610957565b60035461065e919061093f565b600355505042600255505b565b6001600160a01b038082166000908152600460208190526040808320600354845492516370a0823160e01b815294956002959294919387939116916370a08231916106b891309101610871565b60206040518083038186803b1580156106d057600080fd5b505afa1580156106e4573d6000803e3d6000fd5b505050506040513d601f19601f820116820180604052508101906107089190610859565b84549091504211801561071a57508015155b1561076c57600061072f8560000154426107b2565b90506000600154826107419190610977565b9050826107538264e8d4a51000610977565b61075d9190610957565b610767908561093f565b935050505b60028301546001840154845464e8d4a510009061078a908690610977565b6107949190610957565b61079e9190610996565b6107a8919061093f565b9695505050505050565b600060075482116107ce576107c78383610996565b90506107ed565b60075483106107df575060006107ed565b826007546107c79190610996565b92915050565b600060208284031215610804578081fd5b81356001600160a01b038116811461081a578182fd5b9392505050565b600060208284031215610832578081fd5b8151801515811461081a578182fd5b600060208284031215610852578081fd5b5035919050565b60006020828403121561086a578081fd5b5051919050565b6001600160a01b0391909116815260200190565b6001600160a01b039384168152919092166020820152604081019190915260600190565b6001600160a01b03929092168252602082015260400190565b6020808252601490820152730eed2e8d0c8e4c2ee7440dcdee840cadcdeeaced60631b604082015260600190565b6020808252600890820152670616d6f756e7420360c41b604082015260600190565b90815260200190565b918252602082015260400190565b9283526020830191909152604082015260600190565b60008219821115610952576109526109ad565b500190565b60008261097257634e487b7160e01b81526012600452602481fd5b500490565b6000816000190483118215151615610991576109916109ad565b500290565b6000828210156109a8576109a86109ad565b500390565b634e487b7160e01b600052601160045260246000fdfea26469706673582212209c3234943a8a50271512c4bde0a6dac0daca231abec1087f51635b4bba75b3d664736f6c63430008000033",
    "sourcePath": "/Users/Uni/Documents/GitHub/easybake/easybake-bakery/contracts/SousChef.sol",
    "compiler": {
        "name": "solc",
        "version": "0.8.0+commit.c7dfd78e"
    },
    "functionHashes": {
        "addressLength()": "dc881888",
        "addressList(uint256)": "b810fb43",
        "bonusEndBlock()": "1aed6553",
        "deposit(uint256)": "b6b55f25",
        "pendingReward(address)": "f40f0f52",
        "poolInfo()": "5a2f3d09",
        "rewardPerSecond()": "8f10369a",
        "startTime()": "78e97925",
        "sugar()": "a0e0e13c",
        "updatePool()": "e3161ddd",
        "userInfo(address)": "1959a002",
        "withdraw(uint256)": "2e1a7d4d"
    },
    "gasEstimates": {
        "creation": {
            "codeDepositCost": "510600",
            "executionCost": "infinite",
            "totalCost": "infinite"
        },
        "external": {
            "addressLength()": "1094",
            "addressList(uint256)": "2082",
            "bonusEndBlock()": "1051",
            "deposit(uint256)": "infinite",
            "pendingReward(address)": "infinite",
            "poolInfo()": "1916",
            "rewardPerSecond()": "1139",
            "startTime()": "1117",
            "sugar()": "1070",
            "updatePool()": "infinite",
            "userInfo(address)": "2896",
            "withdraw(uint256)": "infinite"
        },
        "internal": {
            "getMultiplier(uint256,uint256)": "2558"
        }
    }
}