{
    "contractName": "SousChef",
    "abi": [
        {
            "inputs": [
                {
                    "internalType": "contract IERC20",
                    "name": "_sugar",
                    "type": "address"
                },
                {
                    "internalType": "uint256",
                    "name": "_startTime",
                    "type": "uint256"
                },
                {
                    "internalType": "uint256",
                    "name": "_endTime",
                    "type": "uint256"
                }
            ],
            "stateMutability": "nonpayable",
            "type": "constructor"
        },
        {
            "anonymous": false,
            "inputs": [
                {
                    "indexed": true,
                    "internalType": "address",
                    "name": "user",
                    "type": "address"
                },
                {
                    "indexed": false,
                    "internalType": "uint256",
                    "name": "amount",
                    "type": "uint256"
                }
            ],
            "name": "Deposit",
            "type": "event"
        },
        {
            "anonymous": false,
            "inputs": [
                {
                    "indexed": true,
                    "internalType": "address",
                    "name": "user",
                    "type": "address"
                },
                {
                    "indexed": false,
                    "internalType": "uint256",
                    "name": "amount",
                    "type": "uint256"
                }
            ],
            "name": "EmergencyWithdraw",
            "type": "event"
        },
        {
            "anonymous": false,
            "inputs": [
                {
                    "indexed": true,
                    "internalType": "address",
                    "name": "previousOwner",
                    "type": "address"
                },
                {
                    "indexed": true,
                    "internalType": "address",
                    "name": "newOwner",
                    "type": "address"
                }
            ],
            "name": "OwnershipTransferred",
            "type": "event"
        },
        {
            "anonymous": false,
            "inputs": [
                {
                    "indexed": true,
                    "internalType": "address",
                    "name": "user",
                    "type": "address"
                },
                {
                    "indexed": false,
                    "internalType": "uint256",
                    "name": "amount",
                    "type": "uint256"
                }
            ],
            "name": "Withdraw",
            "type": "event"
        },
        {
            "inputs": [],
            "name": "addressLength",
            "outputs": [
                {
                    "internalType": "uint256",
                    "name": "",
                    "type": "uint256"
                }
            ],
            "stateMutability": "view",
            "type": "function"
        },
        {
            "inputs": [
                {
                    "internalType": "uint256",
                    "name": "",
                    "type": "uint256"
                }
            ],
            "name": "addressList",
            "outputs": [
                {
                    "internalType": "address",
                    "name": "",
                    "type": "address"
                }
            ],
            "stateMutability": "view",
            "type": "function"
        },
        {
            "inputs": [],
            "name": "bonusEndTime",
            "outputs": [
                {
                    "internalType": "uint256",
                    "name": "",
                    "type": "uint256"
                }
            ],
            "stateMutability": "view",
            "type": "function"
        },
        {
            "inputs": [],
            "name": "chains",
            "outputs": [
                {
                    "internalType": "uint32",
                    "name": "",
                    "type": "uint32"
                }
            ],
            "stateMutability": "view",
            "type": "function"
        },
        {
            "inputs": [],
            "name": "dailyReward",
            "outputs": [
                {
                    "internalType": "uint256",
                    "name": "",
                    "type": "uint256"
                }
            ],
            "stateMutability": "view",
            "type": "function"
        },
        {
            "inputs": [
                {
                    "internalType": "uint256",
                    "name": "_amount",
                    "type": "uint256"
                }
            ],
            "name": "deposit",
            "outputs": [],
            "stateMutability": "nonpayable",
            "type": "function"
        },
        {
            "inputs": [],
            "name": "owner",
            "outputs": [
                {
                    "internalType": "address",
                    "name": "",
                    "type": "address"
                }
            ],
            "stateMutability": "view",
            "type": "function"
        },
        {
            "inputs": [
                {
                    "internalType": "address",
                    "name": "_user",
                    "type": "address"
                }
            ],
            "name": "pendingReward",
            "outputs": [
                {
                    "internalType": "uint256",
                    "name": "",
                    "type": "uint256"
                }
            ],
            "stateMutability": "view",
            "type": "function"
        },
        {
            "inputs": [],
            "name": "poolInfo",
            "outputs": [
                {
                    "internalType": "uint256",
                    "name": "lastRewardTime",
                    "type": "uint256"
                },
                {
                    "internalType": "uint256",
                    "name": "accRewardPerShare",
                    "type": "uint256"
                }
            ],
            "stateMutability": "view",
            "type": "function"
        },
        {
            "inputs": [],
            "name": "renounceOwnership",
            "outputs": [],
            "stateMutability": "nonpayable",
            "type": "function"
        },
        {
            "inputs": [],
            "name": "rewardPerSecond",
            "outputs": [
                {
                    "internalType": "uint256",
                    "name": "",
                    "type": "uint256"
                }
            ],
            "stateMutability": "view",
            "type": "function"
        },
        {
            "inputs": [],
            "name": "startTime",
            "outputs": [
                {
                    "internalType": "uint256",
                    "name": "",
                    "type": "uint256"
                }
            ],
            "stateMutability": "view",
            "type": "function"
        },
        {
            "inputs": [],
            "name": "sugar",
            "outputs": [
                {
                    "internalType": "contract IERC20",
                    "name": "",
                    "type": "address"
                }
            ],
            "stateMutability": "view",
            "type": "function"
        },
        {
            "inputs": [
                {
                    "internalType": "address",
                    "name": "newOwner",
                    "type": "address"
                }
            ],
            "name": "transferOwnership",
            "outputs": [],
            "stateMutability": "nonpayable",
            "type": "function"
        },
        {
            "inputs": [
                {
                    "internalType": "uint32",
                    "name": "_chains",
                    "type": "uint32"
                }
            ],
            "name": "updateChains",
            "outputs": [],
            "stateMutability": "nonpayable",
            "type": "function"
        },
        {
            "inputs": [],
            "name": "updatePool",
            "outputs": [],
            "stateMutability": "nonpayable",
            "type": "function"
        },
        {
            "inputs": [
                {
                    "internalType": "address",
                    "name": "",
                    "type": "address"
                }
            ],
            "name": "userInfo",
            "outputs": [
                {
                    "internalType": "uint256",
                    "name": "amount",
                    "type": "uint256"
                },
                {
                    "internalType": "uint256",
                    "name": "rewardDebt",
                    "type": "uint256"
                },
                {
                    "internalType": "uint256",
                    "name": "rewardPending",
                    "type": "uint256"
                }
            ],
            "stateMutability": "view",
            "type": "function"
        },
        {
            "inputs": [
                {
                    "internalType": "uint256",
                    "name": "_amount",
                    "type": "uint256"
                }
            ],
            "name": "withdraw",
            "outputs": [],
            "stateMutability": "nonpayable",
            "type": "function"
        }
    ],
    "bytecode": "60806040526001805463ffffffff60a01b1916600160a01b1790556203d0906002819055610031906201518090610149565b60035534801561004057600080fd5b50604051610f50380380610f5083398101604081905261005f91610108565b6000610069610104565b600080546001600160a01b0319166001600160a01b0383169081178255604051929350917f8be0079c531659141344cd1fd0a4f28419497f9722a3daafe3b4186f6b6457e0908290a350600180546001600160a01b0319166001600160a01b03949094169390931790925560088190556009919091556040805180820190915281815260006020909101819052600491909155600555610169565b3390565b60008060006060848603121561011c578283fd5b83516001600160a01b0381168114610132578384fd5b602085015160409095015190969495509392505050565b60008261016457634e487b7160e01b81526012600452602481fd5b500490565b610dd8806101786000396000f3fe608060405234801561001057600080fd5b50600436106101165760003560e01c8063b6b55f25116100a2578063dc88188811610071578063dc88188814610209578063e3161ddd14610211578063ee1a629514610219578063f2fde38b14610221578063f40f0f521461023457610116565b8063b6b55f25146101c8578063b810fb43146101db578063bc0a4b9d146101ee578063c964ad451461020157610116565b8063715018a6116100e9578063715018a61461018657806378e979251461018e5780638da5cb5b146101a35780638f10369a146101b8578063a0e0e13c146101c057610116565b80631959a0021461011b5780632e1a7d4d1461014657806358a8b85f1461015b5780635a2f3d0914610170575b600080fd5b61012e610129366004610b01565b610247565b60405161013d93929190610cf7565b60405180910390f35b610159610154366004610b4f565b610268565b005b610163610401565b60405161013d9190610d0d565b610178610414565b60405161013d929190610ce9565b61015961041d565b6101966104a6565b60405161013d9190610ce0565b6101ab6104ac565b60405161013d9190610ba3565b6101966104bb565b6101ab6104c1565b6101596101d6366004610b4f565b6104d0565b6101ab6101e9366004610b4f565b61069c565b6101596101fc366004610b7f565b6106c6565b61019661072e565b610196610734565b61015961073a565b610196610856565b61015961022f366004610b01565b61085c565b610196610242366004610b01565b61091c565b60066020526000908152604090208054600182015460029092015490919083565b600081116102915760405162461bcd60e51b815260040161028890610c6f565b60405180910390fd5b33600090815260066020526040902080548211156102c15760405162461bcd60e51b815260040161028890610c91565b6102c961073a565b60015460405163a9059cbb60e01b81526001600160a01b039091169063a9059cbb906102fb9033908690600401610bdb565b602060405180830381600087803b15801561031557600080fd5b505af1158015610329573d6000803e3d6000fd5b505050506040513d601f19601f8201168201806040525081019061034d9190610b2f565b50806002015481600101546103629190610d1e565b600554825464e8d4a510009161037791610d56565b6103819190610d36565b61038b9190610d75565b6002820155805461039d908390610d75565b80825560055464e8d4a51000916103b49190610d56565b6103be9190610d36565b600182015560405133907f884edad9ce6fa2440d8a54cc123490eb96d2768479d49ff9c7366125a9424364906103f5908590610ce0565b60405180910390a25050565b600154600160a01b900463ffffffff1681565b60045460055482565b610425610a87565b6001600160a01b03166104366104ac565b6001600160a01b03161461045c5760405162461bcd60e51b815260040161028890610c3a565b600080546040516001600160a01b03909116907f8be0079c531659141344cd1fd0a4f28419497f9722a3daafe3b4186f6b6457e0908390a3600080546001600160a01b0319169055565b60085481565b6000546001600160a01b031690565b60035481565b6001546001600160a01b031681565b600081116104f05760405162461bcd60e51b815260040161028890610c6f565b33600090815260066020526040902061050761073a565b6001546040516323b872dd60e01b81526001600160a01b03909116906323b872dd9061053b90339030908790600401610bb7565b602060405180830381600087803b15801561055557600080fd5b505af1158015610569573d6000803e3d6000fd5b505050506040513d601f19601f8201168201806040525081019061058d9190610b2f565b50805415801561059f57506002810154155b80156105ad57506001810154155b156105f557600780546001810182556000919091527fa66cc928b5edb82af9bd49922954155ab7b0942694bea4ce44661d9a8736c6880180546001600160a01b031916331790555b806002015481600101546106099190610d1e565b600554825464e8d4a510009161061e91610d56565b6106289190610d36565b6106329190610d75565b60028201558054610644908390610d1e565b80825560055464e8d4a510009161065b9190610d56565b6106659190610d36565b600182015560405133907fe1fffcc4923d04b559f4d29a8bfc6cda04eb5b0d3c460751c2402c5c5cc9109c906103f5908590610ce0565b600781815481106106ac57600080fd5b6000918252602090912001546001600160a01b0316905081565b6106ce610a87565b6001600160a01b03166106df6104ac565b6001600160a01b0316146107055760405162461bcd60e51b815260040161028890610c3a565b6001805463ffffffff60a01b1916600160a01b63ffffffff84160217905561072b610a8b565b50565b60025481565b60075490565b600454421161074857610854565b6001546040516370a0823160e01b81526000916001600160a01b0316906370a0823190610779903090600401610ba3565b60206040518083038186803b15801561079157600080fd5b505afa1580156107a5573d6000803e3d6000fd5b505050506040513d601f19601f820116820180604052508101906107c99190610b67565b9050806107da575042600455610854565b60006107eb60046000015442610ac0565b90506000600160149054906101000a900463ffffffff1663ffffffff16600354836108169190610d56565b6108209190610d36565b9050826108328264e8d4a51000610d56565b61083c9190610d36565b6005546108499190610d1e565b600555505042600455505b565b60095481565b610864610a87565b6001600160a01b03166108756104ac565b6001600160a01b03161461089b5760405162461bcd60e51b815260040161028890610c3a565b6001600160a01b0381166108c15760405162461bcd60e51b815260040161028890610bf4565b600080546040516001600160a01b03808516939216917f8be0079c531659141344cd1fd0a4f28419497f9722a3daafe3b4186f6b6457e091a3600080546001600160a01b0319166001600160a01b0392909216919091179055565b6001600160a01b0380821660009081526006602052604080822060055460015492516370a0823160e01b81529394600494929391928692909116906370a082319061096a9030908801610ba3565b60206040518083038186803b15801561098257600080fd5b505afa158015610996573d6000803e3d6000fd5b505050506040513d601f19601f820116820180604052508101906109ba9190610b67565b8454909150421180156109cc57508015155b15610a415760006109e1856000015442610ac0565b90506000600160149054906101000a900463ffffffff1663ffffffff1660035483610a0c9190610d56565b610a169190610d36565b905082610a288264e8d4a51000610d56565b610a329190610d36565b610a3c9085610d1e565b935050505b60028301546001840154845464e8d4a5100090610a5f908690610d56565b610a699190610d36565b610a739190610d75565b610a7d9190610d1e565b9695505050505050565b3390565b600154600254610aa891600160a01b900463ffffffff1690610d36565b6002819055610abb906201518090610d36565b600355565b60006009548211610adc57610ad58383610d75565b9050610afb565b6009548310610aed57506000610afb565b82600954610ad59190610d75565b92915050565b600060208284031215610b12578081fd5b81356001600160a01b0381168114610b28578182fd5b9392505050565b600060208284031215610b40578081fd5b81518015158114610b28578182fd5b600060208284031215610b60578081fd5b5035919050565b600060208284031215610b78578081fd5b5051919050565b600060208284031215610b90578081fd5b813563ffffffff81168114610b28578182fd5b6001600160a01b0391909116815260200190565b6001600160a01b039384168152919092166020820152604081019190915260600190565b6001600160a01b03929092168252602082015260400190565b60208082526026908201527f4f776e61626c653a206e6577206f776e657220697320746865207a65726f206160408201526564647265737360d01b606082015260800190565b6020808252818101527f4f776e61626c653a2063616c6c6572206973206e6f7420746865206f776e6572604082015260600190565b6020808252600890820152670616d6f756e7420360c41b604082015260600190565b6020808252602f908201527f77697468647261773a206f766572647261667420616d6f756e742c20706c656160408201526e39b29039b2b632b1ba103632b9b99760891b606082015260800190565b90815260200190565b918252602082015260400190565b9283526020830191909152604082015260600190565b63ffffffff91909116815260200190565b60008219821115610d3157610d31610d8c565b500190565b600082610d5157634e487b7160e01b81526012600452602481fd5b500490565b6000816000190483118215151615610d7057610d70610d8c565b500290565b600082821015610d8757610d87610d8c565b500390565b634e487b7160e01b600052601160045260246000fdfea2646970667358221220b5173c8795ff42b2ce6476a77e8a4e2e986d6643e31348beb64464b45c68b40764736f6c63430008000033",
    "sourcePath": "/Users/Uni/Documents/GitHub/easybake/easybake-bakery/flats/SousChef_flat.sol",
    "compiler": {
        "name": "solc",
        "version": "0.8.0+commit.c7dfd78e"
    },
    "functionHashes": {
        "addressLength()": "dc881888",
        "addressList(uint256)": "b810fb43",
        "bonusEndTime()": "ee1a6295",
        "chains()": "58a8b85f",
        "dailyReward()": "c964ad45",
        "deposit(uint256)": "b6b55f25",
        "owner()": "8da5cb5b",
        "pendingReward(address)": "f40f0f52",
        "poolInfo()": "5a2f3d09",
        "renounceOwnership()": "715018a6",
        "rewardPerSecond()": "8f10369a",
        "startTime()": "78e97925",
        "sugar()": "a0e0e13c",
        "transferOwnership(address)": "f2fde38b",
        "updateChains(uint32)": "bc0a4b9d",
        "updatePool()": "e3161ddd",
        "userInfo(address)": "1959a002",
        "withdraw(uint256)": "2e1a7d4d"
    },
    "gasEstimates": {
        "creation": {
            "codeDepositCost": "708800",
            "executionCost": "infinite",
            "totalCost": "infinite"
        },
        "external": {
            "addressLength()": "1050",
            "addressList(uint256)": "2083",
            "bonusEndTime()": "1094",
            "chains()": "1131",
            "dailyReward()": "1117",
            "deposit(uint256)": "infinite",
            "owner()": "1137",
            "pendingReward(address)": "infinite",
            "poolInfo()": "1939",
            "renounceOwnership()": "24278",
            "rewardPerSecond()": "1117",
            "startTime()": "1073",
            "sugar()": "1181",
            "transferOwnership(address)": "24543",
            "updateChains(uint32)": "infinite",
            "updatePool()": "infinite",
            "userInfo(address)": "2919",
            "withdraw(uint256)": "infinite"
        },
        "internal": {
            "getMultiplier(uint256,uint256)": "2558",
            "updateRewards()": "infinite"
        }
    }
}